:020000040800F2
:10000000003000207D8C0008651000086710000893
:10001000691000086B1000086D1000080000000057
:10002000000000000000000000000000B18900088E
:100030006F10000800000000518A0008B58A00080F
:10004000CD8C0008CD8C0008CD8C0008CD8C00082C
:10005000CD8C0008CD8C0008CD8C0008CD8C00081C
:10006000CD8C0008CD8C0008CD8C0008CD8C00080C
:10007000CD8C0008CD8C0008CD8C0008CD8C0008FC
:10008000CD8C0008CD8C0008CD8C000871100008C4
:100090008110000891100008CD8C0008CD8C00085C
:1000A000CD8C0008A1100008B1100008CD8C00080C
:1000B000C1100008CD8C000800000000CD8C0008A5
:1000C000CD8C00080000000000000000CD8C00086E
:1000D00000000000CD8C0008CD8C0008CD8C0008FD
:1000E000CD8C0008CD8C000800000000000000004E
:1000F0000000000000000000000000000000000000
:1001000000000000000000000000000000000000EF
:100110000000000000000000CD8C0008CD8C00081D
:1001200000000000000000000000000000000000CF
:1001300000000000000000000000000000000000BF
:10014000CD8C0008CD8C00080000000000000000ED
:10015000000000000000000000000000000000009F
:10016000000000000000000000000000000000008F
:10017000000000000000000000000000000000007F
:0801800000000000CD8C000816
:1001900010B5054C237833B9044B13B10448AFF3C1
:1001A00000800123237010BD5802002000000000D1
:1001B000709E000808B5034B1BB103490348AFF319
:1001C000008008BD000000005C020020709E000856
:1001D000034613F8012B002AFBD1181A0138704787
:1001E00001F0FF01102A2BDB10F0070F08D010F8E8
:1001F000013B013A8B422DD010F0070F42B3F6D1EC
:10020000F0B441EA012141EA014122F007047FF004
:1002100000070023F0E80256083C85EA010586EA5B
:10022000010685FA47F5A3FA87F586FA47F6A5FA97
:1002300087F68EB9EED1F0BC01F0FF0102F00702A3
:1002400032B110F8013B013A83EA010313B1F8D14E
:100250000020704701387047002D06BF354603382F
:10026000073815F0010F07D1013015F4807F02BF68
:10027000013015F4C03F0130F0BC0138704700BFB9
:1002800070B54FF0FF0C4CF4E06C1CEA11541DBF2C
:100290001CEA135594EA0C0F95EA0C0F00F0DEF8F7
:1002A0002C4481EA030621EA4C5123EA4C5350EADC
:1002B000013518BF52EA033541F4801143F480132D
:1002C00038D0A0FB02CE4FF00005E1FB02E506F0BE
:1002D0000042E0FB03E54FF00006E1FB03569CF013
:1002E000000F18BF4EF0010EA4F1FF04B6F5007F19
:1002F00064F5407404D25FEA4E0E6D4146EB06068B
:1003000042EAC62141EA55514FEAC52040EA5E5013
:100310004FEACE2EB4F1FD0C88BFBCF5E06F1ED8BD
:10032000BEF1004F08BF5FEA500E50F1000041EBF4
:10033000045170BD06F0004646EA010140EA0200A1
:1003400081EA0301B4EB5C04C2BFD4EB0C0541EAC3
:10035000045170BD41F480114FF0000E013C00F3D8
:10036000AB8014F1360FDEBF002001F0004170BDFC
:10037000C4F10004203C35DA0C341BDC04F1140415
:10038000C4F1200500FA05F320FA04F001FA05F2A1
:1003900040EA020001F0004221F0004110EBD3706E
:1003A00021FA04F642EB06015EEA430E08BF20EA9A
:1003B000D37070BDC4F10C04C4F1200500FA04F33D
:1003C00020FA05F001FA04F240EA020001F00041CF
:1003D00010EBD37041F100015EEA430E08BF20EA42
:1003E000D37070BDC4F1200500FA05F24EEA020E8A
:1003F00020FA04F301FA05F243EA020321FA04F0B9
:1004000001F0004121FA04F220EA020000EBD3706F
:100410005EEA430E08BF20EAD37070BD94F0000F6F
:100420000FD101F00046400041EB010111F4801FA3
:1004300008BF013CF7D041EA060195F0000F18BF54
:10044000704703F00046520043EB030313F4801F90
:1004500008BF013DF7D043EA0603704794EA0C0F4A
:100460000CEA135518BF95EA0C0F0CD050EA410660
:1004700018BF52EA4306D1D181EA030101F00041DD
:100480004FF0000070BD50EA410606BF1046194605
:1004900052EA430619D094EA0C0F02D150EA013611
:1004A00013D195EA0C0F05D152EA03361CBF104652
:1004B00019460AD181EA030101F0004141F0FE41F1
:1004C00041F470014FF0000070BD41F0FE4141F475
:1004D000780170BD81F0004102E000BF83F000436D
:1004E00030B54FEA41044FEA430594EA050F08BFCF
:1004F00090EA020F1FBF54EA000C55EA020C7FEA93
:10050000645C7FEA655C00F0E2804FEA5454D4EB0F
:100510005555B8BF6D420CDD2C4480EA020281EAD9
:10052000030382EA000083EA010180EA020281EA11
:100530000303362D88BF30BD11F0004F4FEA013163
:100540004FF4801C4CEA113102D0404261EB410172
:1005500013F0004F4FEA03334CEA133302D05242F8
:1005600063EB430394EA050F00F0A780A4F10104B4
:10057000D5F1200E0DDB02FA0EFC22FA05F28018EE
:1005800041F1000103FA0EF2801843FA05F35941D4
:100590000EE0A5F120050EF1200E012A03FA0EFC53
:1005A00028BF4CF0020C43FA05F3C01851EBE3717D
:1005B00001F0004507D54FF0000EDCF1000C7EEB9A
:1005C00000006EEB0101B1F5801F1BD3B1F5001FD8
:1005D0000CD349085FEA30004FEA3C0C04F10104F7
:1005E0004FEA445212F5800F80F09A80BCF1004F20
:1005F00008BF5FEA500C50F1000041EB045141EAA2
:10060000050130BD5FEA4C0C404141EB0101013C6A
:1006100028BFB1F5801FE9D291F0000F04BF014659
:100620000020B1FA81F308BF2033A3F10B03B3F12B
:1006300020020CDA0C3208DD02F1140CC2F10C02BB
:1006400001FA0CF021FA02F10CE002F11402D8BF19
:10065000C2F1200C01FA02F120FA0CFCDCBF41EAE5
:100660000C019040E41AA2BF01EB0451294330BDB4
:100670006FEA04041F3C1CDA0C340EDC04F1140491
:10068000C4F1200220FA04F001FA02F340EA030068
:1006900021FA04F345EA030130BDC4F10C04C4F1AE
:1006A000200220FA02F001FA04F340EA030029468E
:1006B00030BD21FA04F0294630BD94F0000F83F4D8
:1006C000801306BF81F480110134013D4EE77FEABB
:1006D000645C18BF7FEA655C29D094EA050F08BF07
:1006E00090EA020F05D054EA000C04BF19461046E8
:1006F00030BD91EA030F1EBF0021002030BD5FEA2C
:10070000545C05D14000494128BF41F0004130BD53
:1007100014F580043CBF01F5801130BD01F00045A7
:1007200045F0FE4141F470014FF0000030BD7FEA1A
:10073000645C1ABF194610467FEA655C1CBF0B4615
:10074000024650EA013406BF52EA033591EA030F2C
:1007500041F4002130BD00BF90F0000F04BF002124
:10076000704730B54FF4806404F132044FF0000557
:100770004FF0000150E700BF90F0000F04BF0021D0
:10078000704730B54FF4806404F1320410F0004536
:1007900048BF40424FF000013EE700BF42004FEA31
:1007A000E2014FEA31014FEA02701FBF12F07F43AE
:1007B00093F07F4F81F06051704732F07F4208BF65
:1007C000704793F07F4F04BF41F40021704730B56C
:1007D0004FF4607401F0004521F000411CE700BFB8
:1007E00050EA010208BF704730B54FF000050AE03B
:1007F00050EA010208BF704730B511F0004502D53C
:10080000404261EB41014FF4806404F132045FEA3D
:10081000915C3FF4D8AE4FF003025FEADC0C18BFE6
:1008200003325FEADC0C18BF033202EBDC02C2F1D8
:10083000200300FA03FC20FA02F001FA03FE40EA6A
:100840000E0021FA02F11444BDE600BF4A0011D2A5
:1008500012F5001211D20DD56FF47873B3EB62521A
:100860000ED44FEAC12343F0004343EA505323FA26
:1008700002F070474FF00000704750EA013002D19B
:100880004FF0FF3070474FF000007047014B186881
:10089000704700BF7402002010B504460268074B81
:1008A0009A4205D0064B1B685B68A34203D010BD7B
:1008B00005F080F8F6E704F0DBF9F8E7002C0140DA
:1008C0002806002072B6FEE700B591B0282200216C
:1008D00006A808F027FC00230193029303930493D6
:1008E00005930223069301220A9210220B920D9384
:1008F0004FF460130F9306A805F06EF880B90F232C
:10090000019302210291002303934FF48062049229
:10091000059301A805F0B2FB20B911B05DF804FB06
:10092000FFF7D0FFFFF7CEFF08B505F031F8FFF76E
:10093000CBFF00F01FF800F0F7F900F08DFA00F09F
:10094000DDFA00F013FB084805F090FE012207498C
:10095000074800F01EFD05F0F5FD07F0C3FD00F0AF
:10096000D3F907F0E1FDFEE7DC030020740200206C
:10097000FCFF000870B588B000240394049405942B
:1009800006940794224B5A6942F400325A615A691C
:1009900002F400320192019A5A6942F480225A61AB
:1009A0005B6903F480230293029B012211464FF0FE
:1009B000904005F04FFD224602214FF0904005F097
:1009C00049FD144E22460821304605F043FD01251D
:1009D0000395049505940323069303A94FF09040D3
:1009E00005F05AFC0223039304950594069403A989
:1009F0004FF0904005F050FC0823039304950594B4
:100A0000069403A9304605F047FC08B070BD00BF4E
:100A1000001002400004004870B586B0AF4B02934E
:100A2000AF4B0393AF4B0193FFF730FF8DF80000FE
:100A30007D238DF80230684604F0AEF833E0E8B26A
:100A40000246014600F06DFC0134B4F57A7FF6DB16
:100A500000F074FC142007F003FEFE2D0AD00A2DCE
:100A60000AD004F0C1F8A04BB3F89A3033B95EB99C
:100A7000013526E00126F4E70026F2E700F07AFCD3
:100A8000322007F0EDFD0BE0013D1AE0A3F10A0270
:100A900092B2022A19D9A3F1250292B2062A14D9D8
:100AA000012007F071F904F09FF88F4BB3F89A30EA
:100AB000002BEBD1FF221146104600F032FC0A2534
:100AC0000026FE2DECDC0024BFE70A3B212B00F2C0
:100AD0001081DFE813F0C500DD00F5000E010E0106
:100AE0000E010E010E010E010E010E010E010E018E
:100AF0000E010E010E010E010E010E010E010E017E
:100B00000E010E010E010E010E010E012D00390025
:100B1000500067007E009500AD00FF221146104690
:100B200000F0FFFB0134632CF7DD00F007FCE0E090
:100B30000024F8E700221146104600F0F2FB0134D1
:100B40002C2CF7DD002407E00024F9E7FF221146F2
:100B5000104600F0E6FB0134682CF7DD00F0EEFBF8
:100B6000C7E000221146104600F0DBFB0134592C8F
:100B7000F7DD002407E00024F9E7FF2211461046C4
:100B800000F0CFFB0134632CF7DD00F0D7FBB0E0C1
:100B900000221146104600F0C4FB01348B2CF7DD17
:100BA000002407E00024F9E7FF221146104600F078
:100BB000B8FB0134632CF7DD00F0C0FB99E00022A4
:100BC0001146104600F0ADFB0134B82CF7DD0024CF
:100BD00007E00024F9E7FF221146104600F0A1FBD0
:100BE0000134632CF7DD00F0A9FB82E000221146FE
:100BF000104600F096FB0134E52CF7DD002407E0F9
:100C00000024F9E7FF221146104600F08AFB013468
:100C1000632CF7DD00F092FB6BE0002211461046DA
:100C200000F07FFB0134B4F58E7FF6DD002407E091
:100C30000024F8E7FF221146104600F072FB013451
:100C4000632CF7DD00F07AFB53E0002211461046DA
:100C500000F067FB0134B4F5A27FF6DD002407E065
:100C60000024F8E7FF221146104600F05AFB013439
:100C7000722CF7DD00F062FB3BE0002211461046CB
:100C800000F04FFB0134B4F5BB7FF6DD002407E034
:100C90000024F8E7FF221146104600F042FB013421
:100CA000682CF7DD00F04AFB23E0002211461046D5
:100CB00000F037FB0134B4F5CF7FF6DD002407E008
:100CC0000024F8E7FF221146104600F02AFB013409
:100CD000952CF7DD00F032FB0BE000BF7C0200201A
:100CE000290D0008200300200C010020322007F00D
:100CF000B7FC03F079FF034BB3F89A30002BF5D122
:100D0000CEE600BF0C01002008B5044A00210448CB
:100D100007F030FC034B186008BD00BF949E00082C
:100D2000190A00087802002008B51A481A4B036017
:100D300002234360002383604FF08073C3604FF44D
:100D4000402303614FF4801343610123037643760C
:100D50008376C3760377437704F0E4F9B0B90F4B99
:100D60000121196100229A60DA60342018600C4B6E
:100D70001A6144F6A00018605A609A60DA60D9617E
:100D80001A620221034804F0D4FC08BDFFF79AFD63
:100D9000E5E700BF7C02002000640040E002002084
:100DA000F802002070B588B00023039304930593E4
:100DB000069307930268274B9A4201D008B070BD92
:100DC00003F5D633DA6942F00072DA61DA6902F0CB
:100DD00000720192019A5A6942F400325A615B69C9
:100DE00003F400330293029B4FF400630393022445
:100DF000049401230593032606960925079503A964
:100E00004FF0904005F048FA4FF480530393049458
:100E1000002405940696079503A94FF0904005F02D
:100E20003BFA22460521132005F034FB132005F080
:100E300069FB22460521142005F02CFB142005F047
:100E400061FB22460521152005F024FB152005F045
:100E500059FBB3E70064004000B58DB00023089350
:100E600009930A930B9305930693079301930293B7
:100E70000393049320484FF0804202603F22426077
:100E800083606FF00102C2600361836105F0D2FFED
:100E900018BB4FF48053089308A9174805F002FFC8
:100EA000F0B9154806F000F8E8B900230593079358
:100EB00005A9114806F032F8C0B90A2301930123AD
:100EC00002930023039304930C2201A90A4805F01E
:100ED00079FE70B90DB05DF804FBFFF7F3FCD8E7BD
:100EE000FFF7F0FCDDE7FFF7EDFCDEE7FFF7EAFCDC
:100EF000E3E7FFF7E7FCEDE7DC03002000B589B08E
:100F0000002304930593069307930193029303939D
:100F10001448154A02603F22426083604FF6FF7218
:100F2000C2600361836105F085FF90B94FF480537F
:100F3000049304A90B4805F0B5FE68B9002301939A
:100F4000039301A9074805F0E9FF40B909B05DF82E
:100F500004FBFFF7B7FCE9E7FFF7B4FCEEE7FFF7A8
:100F6000B1FCF3E7980400200004004008B50A48EB
:100F70000A4B03603F234360002383604FF47A727F
:100F8000C26003614361836105F054FF00B908BD8D
:100F9000FFF798FCFBE700BF20030020004801405A
:100FA00000B58BB00023059306930793089309932C
:100FB0000368B3F1804F08D0274A93422DD0274AC7
:100FC000934235D00BB05DF804FB03F50433DA69C6
:100FD00042F00102DA61DA6902F001020192019A3B
:100FE0005A6942F400325A615B6903F40033029398
:100FF000029B28230593022306930123099305A945
:101000004FF0904005F048F9002205211C2005F022
:1010100041FA1C2005F076FAD4E7114BDA6942F068
:101020000202DA61DB6903F002030393039BC9E761
:101030000B4B9A6942F480229A619B6903F48023E6
:101040000493049B002205211A2005F023FA1A209C
:1010500005F058FAB6E700BF000400400048014020
:1010600000100240FEE7FEE7FEE7FEE7FEE77047FE
:1010700008B5024804F06FFB08BD00BF7C020020E9
:1010800008B5024804F067FB08BD00BF7C020020E1
:1010900008B5024804F05FFB08BD00BF7C020020D9
:1010A00008B5024805F052FB08BD00BF54050020FA
:1010B00008B5024805F04AFB08BD00BF2003002028
:1010C00008B5024805F042FB08BD00BFDC03002064
:1010D00000B583B00D4B9A6942F001029A619A699A
:1010E00002F001020092009ADA6942F08052DA615D
:1010F000DB6903F080530193019B00220F216FF005
:10110000010005F0C7F903B05DF804FB00100240D0
:1011100008B504F04FFC08BD30B589B00446214B3A
:101120009A6942F400629A619B6903F40063019337
:10113000019B02A903A805F091F805F079F8034690
:101140001948A0FB03239B0C013B1848184A026076
:1011500040F2E732C2604360002303618360836131
:1011600005F068FE054638B1124A0E210F4805F019
:10117000E2FB284609B030BD0C4805F0ADFA054643
:101180000028F1D1192005F0BDF90F2C01D9012556
:10119000EAE700222146192005F07CF9064B1C6085
:1011A000E2E700BF0010024083DE1B43540500202D
:1011B000002C014011110008E8010020000000008F
:1011C000037F012B00D0704710B50446204B1B78DD
:1011D0006BB908211F4805F042F90021204605F0AF
:1011E00091FB1D4B18601A4B01221A7010BD002193
:1011F00005F088FB194B1860236800225A62164BD1
:101200001B68984217D9C01A154B1860144B186800
:10121000FFF7A2FA0CA3D3E90023FFF731F800226D
:10122000104BFFF72DF8FFF711FB0F4B1860084B21
:1012300000221A70DAE79842E8D2C01A00F57F401F
:10124000FF30074B1860E1E79CC420B07268A13FF3
:1012500018060020000400481C060020200600207C
:10126000100600200000E03F1406002070B582B098
:101270000546802424E000BFBDF802309BB2013354
:101280009BB2ADF80230BDF802309BB2012BF2D90F
:10129000002201214FF0904005F0DCF80023ADF86A
:1012A000003007E000BFBDF800309BB201339BB2B5
:1012B000ADF80030BDF800309BB2012BF2D96408C4
:1012C0006CB32C4209D0012211464FF0904005F03A
:1012D000C1F80023ADF80230D5E7012211464FF0E6
:1012E000904005F0B7F80026ADF80660BDF806306E
:1012F000324601214FF0904005F0ACF8ADF80460A3
:1013000007E000BFBDF804309BB201339BB2ADF8DB
:101310000430BDF804309BB2012BF2D9CFE702B004
:1013200070BD38B5054614460846FFF79FFF2846AE
:10133000FFF79CFF2046FFF799FF38BD00B583B04B
:10134000002201214FF0904005F084F80023ADF811
:10135000063007E000BFBDF806309BB201339BB2F8
:10136000ADF80630BDF806309BB20C2BF2D903B0B5
:101370005DF804FB10B5002405E00022114610467C
:10138000FFF7CFFF0134B4F57A7FF6DBFFF7D6FF26
:1013900010BD03680B607047022070470220704741
:1013A000F8B510B30C461D46034601B30DB386686D
:1013B000016801B3C06808B9964214D9B0421CD282
:1013C000361A0144B2420BD21044D86016464FF090
:1013D000FF373246204607F07DFE2E603846F8BDC6
:1013E0000027DF60F5E70027F3E70927F6E709277D
:1013F000F4E70927F2E70E27F0E70927EEE770B5D3
:1014000010B31C46034609B314B38568006808B3DB
:10141000DE680EB9954215D9AE421DD2AD1B3044DF
:10142000AA420CD21644DE6015464FF0FF369542B4
:1014300014D32A4607F04EFE2560304670BD0026C4
:10144000DE60F4E70026F2E70926F6E70926F4E76E
:101450000926F2E70E26F0E70926EEE70C26ECE770
:1014600030B5054670B303884BB3013B9AB24FF0D9
:10147000000E02E001331FFA83FE964513D20EEBF5
:101480000203C3F34F036C6803EB430C04EB8C00C3
:1014900034F82C408C4215D0ECD913B1013B9AB2F0
:1014A000EBE71A46E9E70CD16A680EEB4E0302EB54
:1014B000830032F823308B4204D0002002E0002069
:1014C00000E0002030BD000000286BD030B584461D
:1014D0004568002D68D0002A68D0C07800F00F0061
:1014E00002280ED0032825D0012801D0092030BDC4
:1014F00000295DD12879107428681060A868906070
:1015000031E09CF80200884254D931B9287A10742D
:10151000286810600120906025E0687A107468687F
:1015200020B12C6901F1FF3E0EFB04001060E86859
:10153000906018E000209CF8024084420AD900EB39
:10154000400405EB840494F804E08E4503D0013098
:10155000C0B2F0E70024002C2ED06079107420680F
:101560001060A0689060DCF8080000B14BB1134B2C
:101570005361134B9361002353600020D06051747A
:10158000B5E7436853B15361DCF808309B683BB161
:101590009361DCF808301B685360EEE7094BF2E713
:1015A000094BF5E7052070470520A0E709209EE7D5
:1015B0000E209CE70E209AE70E2098E7A113000862
:1015C000FF130008991300089D130008C3B2192BDC
:1015D00003D8034B53F8200070470248704700BF00
:1015E000B89E000847000406AAB130B589B01C4671
:1015F0001546002300930C9B01AAFFF765FF40B935
:10160000039BA34209D16B462246294601A8069CAA
:10161000A04709B030BD092070470B20F9E730B56D
:1016200089B015461C46002300930C9B01AAFFF7C6
:101630004BFF40B9039BA34207D16B462246294684
:1016400001A8079CA04709B030BD0B20FBE730B5CF
:1016500089B015461C46012301AAFFF735FF034652
:1016600058B9019A32B1039A32B135B1AA4204D0C5
:101670000B2302E0092300E0092304B1237013B90E
:10168000019809B030BD0020FBE70B7991F805C047
:101690008A79022B00D0704712B1C3789342FAD1F5
:1016A00080F802C0F7E7A8B18446407CA0B9A9B190
:1016B000022A15D1B3B110B5DCF8044008884FF404
:1016C0007A7E0EFB00F0A0600020E0606046FFF72D
:1016D00096FE10BD09207047092070470920704709
:1016E00009207047092070472DE9F04387B0DDF8E5
:1016F0004080DDF84C9000286AD00D4616461F4603
:101700000446002967D0002A68D0B8F1000F68D0DD
:10171000B9F1000F68D02C22002107F003FDE7701B
:10172000BDF83830A3802662BDF83C304FF47A72A1
:1017300002FB03F3E3600123009302230DF1160281
:1017400000212846FFF750FF38BBBDF816304FF494
:101750007A7202FB03F3A3602461254B6361254B7E
:10176000A36104F11003AB60E268A3689A4200D958
:10177000E360214B029301940023009340F2FF7336
:10178000BDF84820BDF84410404603F08DFB0546E7
:1017900058B1284607B0BDE8F083169B13B12B88DB
:1017A000169A13606FF00B05F3E7C4F8249000233A
:1017B000019301220092BDF85420BDF85010484614
:1017C00003F0ACFBA0620028E3D14FF0FF35E0E767
:1017D0004FF0FF35DDE74FF0FF35DAE74FF0FF352B
:1017E000D7E74FF0FF35D4E74FF0FF35D1E700BF23
:1017F000A1130008A71600088B16000870B5044650
:101800000E4690F90050C368934201D99B1A00E03C
:101810000023E36035B1A2689AB11BB194F901309D
:10182000AB420ED0A36A5D71A16A606A03F099FBB6
:101830002DB9A38813F4807F0FD0052501E0A3689C
:10184000E3606570A07890B1802823D007D9812803
:1018500028D0822828D1012007E07F25F1E7012840
:101860001BD002281CD1002004250023A370A388CC
:1018700013F4805F1AD0226A32B3917811F0040F0A
:1018800024D1D27812F0080F22D112F0100F21D1FA
:1018900000220CE000207F25E7E700200525E4E793
:1018A0000020E2E70220E0E70020DEE70022114608
:1018B00013F4005F14D0226A72B1D26872B1127848
:1018C0001A400ED001220CE00122F0E70122EEE7DF
:1018D0000122ECE70122EAE70022F1E70022EFE72C
:1018E0000022052D06D013F4004F0BD1257006B150
:1018F000357070BD09B9002AF5D013F4804F09D0B6
:101900000425F3E77F2DF1D10029EFD1002AEDD195
:101910000525EBE77F25E9E70B79012B00D0704720
:1019200091F9053043700123C360F8E72DE9F043D6
:1019300089B0002859D00C4616461F46054690F837
:101940000890894554D903B182BB6B684FEA041CE7
:1019500003EB041003F80C604FF47A7307FB03F3F6
:101960008360FF2242700022C2603EB333B306F5AB
:10197000E0620123837024E00CF1010C5FFA8CFC1F
:10198000E14517D96B6803EB0C1E9EE80F000DF1C3
:10199000200E0EE90F00A445EED0002AECD09DF8F1
:1019A0001030B342E8D16FF00B08E5E74FF0000CC0
:1019B000E046E5E7B8F1000F13D1C6E700228260E8
:1019C0008270A98B6B68634421440B480290019399
:1019D0000023009340F2FF7389B2A86903F064FA10
:1019E0008046404609B0BDE8F0834FF0FF38F8E785
:1019F0004FF0FF38F5E700BF19190008F8B50446A5
:101A00004068DCB10D4617461E46C9B1617CC9B1BC
:101A1000037A994218D8042A18D1CEB12A6801391C
:101A200093B2C2F30742C9B2FFF780FF90B93346C1
:101A30003A4629462046FFF7E2FC04E0092002E08E
:101A4000092000E00920F8BD0920FCE70920FAE799
:101A50000920F8E70820F6E72DE9F04784B00C9F4D
:101A6000DDF834A0DDF83C8000285AD089461546C0
:101A70001C460646002957D0002A58D0002F59D0BE
:101A8000BAF1000F59D03022002107F04BFBC6F805
:101A900000907560C6F818A0BDF83830B383BB78E5
:101AA000A34201D8013BDCB2347200250CE0B8F14E
:101AB000000F02D03B88C8F800306FF00B032CE019
:101AC00013F10C0F29D12546337AAB421DD96C1C7A
:101AD000E4B201230093042303AA21463846FFF70A
:101AE00083FD0028E3D1039A93B2C2F3074229464B
:101AF0003046FFF71BFF03460028E4D0B8F1000F83
:101B0000DED03A88C8F80020DAE736620C4B736200
:101B10000C4BB3622036BE600023184604B0BDE80B
:101B2000F0874FF0FF33F8E74FF0FF33F5E74FF062
:101B3000FF33F2E74FF0FF33EFE74FF0FF33ECE70F
:101B4000A1130008FD1900082DE9F04F83B00446E9
:101B50000F4619B191464369002B52D1002F67D12E
:101B60006369002B66D14FF00108C24667E001238C
:101B7000AB704B460022EA60AA78022A2DD0AB78DF
:101B8000022B01D04FF0000A95F90130052B01D04E
:101B90004FF000080136F6B2237AB3424FD9656898
:101BA000B34605EB0615AB78002BF3D0EA6892B18B
:101BB00095F9012052B9022BD9D1009648F2301381
:101BC0001C220121206800F083F9D0E70223AB70CA
:101BD00000236B60CEE74B46CEE76A6813446B6028
:101BE000AA689342CBD3CDF800B048F230131B2241
:101BF0000121206800F06CF9FF236B700323AB70A8
:101C0000BDE700264FF00108C246C5E70132D2B257
:101C1000237A934210D9636803EB0213FF215970B2
:101C20000021D96099780029F0D001219970EDE761
:101C30000022EDE70022EBE74FF00008C246E36820
:101C400013B9BAF1000F07D1C4F80CA0C4F8108082
:101C5000676103B0BDE8F08F002500952B461B227D
:101C60002946206800F034F900952B461C222946AD
:101C7000206800F02DF9E7E78446C0B1407CC0B988
:101C8000C9B1032A19D9D3B1DCF80400426A5AB1A8
:101C90004FF0000C90F82820803242EA0C020A60D3
:101CA00004221A60002070474FF0004CF2E7092030
:101CB00070470920704709207047092070470920A4
:101CC000704780B3844681B38BB3032A01D8407C2C
:101CD00078BB82B310B5DCF8040090F81CE0BEF1CC
:101CE000010F2AD99CF8114094B190F82020944219
:101CF00025D8427F121B94B2002A10DB724520DAED
:101D0000806950F832200A6004221A60002010BD59
:101D100090F820200A7001221A600020F7E70EEBED
:101D2000040212B2ECE7092070470920704709202D
:101D3000704709207047092070470920E7E71920FC
:101D4000E5E70920E3E7844670B1407C70B979B1DA
:101D5000012A0FD183B10A7882B9DCF8042082F815
:101D6000200001221A60704709207047092070473F
:101D70000920704709207047092070470F207047DD
:101D80002DE9F04F85B09DF838B0DDF83C90DDF8D6
:101D900044A09DF84880002874D00D4616461F4682
:101DA0000446002A71D0002B5ED0B9F1000F6FD02D
:101DB000002D70D0B8F1000F70D018F0800F70D1E6
:101DC000BAF1000F70D050220021204607F0AAF986
:101DD00065610023012219463046FFF738FCE060B8
:101DE000002847D000210170A76184F81CB00123AE
:101DF0000093042303AA4846FFF7F6FB024618B9EE
:101E00002E4B03990B403BB1139B1BB1B9F800302B
:101E100013990B60002A4AD1039BDB43DB0F6362FB
:101E20002463274B6363274BA36304F13003C9F892
:101E3000083084F82880002301930822009208F1DA
:101E40008002BDF84010284603F068F8E06288B3CD
:101E500024641D4B63641D4BA3644034CAF80840DE
:101E6000002005B0BDE8F08FBBF1010F9DD94FF008
:101E7000FF30F6E7139B13B13388139A13606FF0AA
:101E80000B00EEE74FF0FF30EBE74FF0FF30E8E7F5
:101E90004FF0FF30E5E74FF0FF30E2E74FF0FF3063
:101EA000DFE74FF0FF30DCE74FF0FF30D9E76FF0AE
:101EB0000B00D6E74FF0FF30D3E700BF00F8FF7FFD
:101EC000791C0008FF130008C31C0008471D000808
:101ED00000285DD030B58446D40802F00705012003
:101EE000A840C0B24F2A04D90392012005244FF420
:101EF000C24325461CF804E00EEA0004A9B3002CF6
:101F000045D143EA0262DCF81430EFF310841C631D
:101F100072B669B31CF8053018430CF805009CF83C
:101F20001C1001292ED99CF81D00431CDBB29942DC
:101F300000D800239CF81E10994220D0DCF818101D
:101F400041F83020DCF8182002EBC0020399516000
:101F50008CF81D309CF820209CF81C30013B9A42E4
:101F600010DA01328CF820200CE084B10023C8E79D
:101F70001CF8053023EA00000CF80500CFE7012328
:101F80008CF81F30DCF814301B6B83F3108830BDE5
:101F90007047F0B583B004460F4643695E8A058AF0
:101FA000B54217D07540068240F201131D422CD174
:101FB00015F0020F35D115F0040F3DD115F0080FC3
:101FC00045D115F0800F4DD115F4007F55D115F492
:101FD000006F5DD1637903B1012362880AB143F0D8
:101FE000100322890AB143F08003E268137057B1ED
:101FF000227F012A07D9A57F627FAA4203D0E26A25
:102000001269002A4ED003B0F0BD1E424FF000030B
:1020100000934FF0010214BF11461946FFF758FF15
:10202000C6E70023009348F220130722C6F34001BD
:102030002046FFF74DFFBEE70023009348F2401310
:102040001222C6F380012046FFF742FFB6E70023C5
:10205000009348F210131422C6F3C0012046FFF784
:1020600037FFAEE7002300934FF401431522C6F378
:10207000C0112046FFF72CFFA6E70023009348F28B
:1020800020130622C6F340212046FFF721FF9EE7DA
:102090000023009313231A46C6F3C0212046FFF7FE
:1020A00017FF97E7A16951F8352042EA034341F849
:1020B0003530E36AA26902EBC50052F83510426878
:1020C000C3F80510C3F80920E16A606902F049FF0E
:1020D0000135EDB2237FAB4200D80025A577E37F21
:1020E000012B0DD0022B8ED1637FAB428BD100210F
:1020F000E17700910B4620222046FFF7E9FE82E7B8
:102100000223E377002300934FF480532022012120
:102110002046FFF7DDFE76E72DE9F04184B0054665
:10212000084611461F460A9A0B9EEB6C93420CD050
:10213000EA642E65002A0DDB92B2002E0CDBB6B2EB
:1021400062B15EB101232B610BE02B6DB342EFD185
:1021500000241EE00022F0E70026F1E700222A61B9
:102160001646104B029301954FF00008CDF8008001
:1021700040F2FF7302F098FE0446CDF80480082375
:102180000093434632463946286802F0C7FE68602D
:1021900018B1204604B0BDE8F081C5F810804FF0BA
:1021A000FF34F6E759230008002800F0A780F0B5B7
:1021B00083B00C4617461E460546002900F0A08055
:1021C000002B00F09F804068697C032900F29C800E
:1021D000DFE801F002054787042003B0F0BDD4F822
:1021E00000C01FFA8CFECCF30A01B0F84C30C3F3E8
:1021F0000A02584B0CEA0303002B40F08780BCF125
:10220000000F04DB036913B1914240F08180BCF1FF
:10221000000F19DB1EF4F06F7CD0A1F201139BB20A
:102220007F2B79D9A1F281539BB27E2B76D9A1F273
:1022300001639BB27E2B73D9A1F5DC639BB21F2B8C
:1022400070D9B1F5E06F6FD8B0F84AE0B0F8482027
:10225000416C036D0193CDF800C07346FFF75CFF3E
:1022600045E0D4F800C01FFA8CFECCF30A01B0F8A8
:102270005030C3F30A02374B0CEA0303002B55D14D
:10228000BCF1000F03DB03690BB1914250D1BCF1EB
:10229000000F19DB1EF4F06F4CD0A1F201139BB2BA
:1022A0007F2B49D9A1F281539BB27E2B46D9A1F253
:1022B00001639BB27E2B43D9A1F5DC639BB21F2B3C
:1022C00040D9B1F5E06F3FD8B0F84AE0B0F8482007
:1022D000416CCDF804C0C36C00937346FFF71CFF3C
:1022E00005E0012A32D194F90030002B30DD33466D
:1022F0003A4621462846FFF782F86EE709207047E4
:1023000009206AE7092068E70E2066E70F2064E7E6
:102310000F2062E70F2060E70F205EE70F205CE7E9
:102320000F205AE70F2058E70F2056E70F2054E7F9
:102330000F2052E70F2050E70F204EE70F204CE709
:102340000F204AE70F2048E70F2046E70B2044E71D
:102350000F2042E700F8FF3F0A79082A00D07047B3
:1023600010B504464B1D4979802902D0816B19B103
:1023700010BD00230375FBE719463C3006F0AAFEAA
:102380000123A363F4E70000F0B583B004460D46D3
:10239000D0F8A020006F002841D0636E5BB1A16E21
:1023A0008B4208D005D2474B2B60012323750020B8
:1023B00086E0454BF8E7236A94F92810002903DBEF
:1023C0000BBBA36E23622FE013B1A16E9942F7D22B
:1023D000911C2029F4D8501CC4F8A00022440026E7
:1023E00082F87C60A26E0132A2660BB19A4207D2DB
:1023F000C4F8A0102044002380F87C300132A2668B
:10240000A36E236210E0A26E9A420DD005D92D4B27
:102410002B6001232375002052E02B4BF8E7636EFD
:1024200013B1A26E93422ED30023019314F118002E
:102430002ED094F8283013F03C0F2BD100231E46E9
:1024400023B12368EFF310825A6372B601ABD4F85C
:10245000A02004F17C01276BB84703461EB1226817
:10246000526B82F310880022C4F8A0205A1CD2B20A
:10247000012A11D8206F10B1B3F1FF3F14D0F0B989
:10248000C3B101201CE00F4B0B600123237517E043
:102490000023D4E70123D2E71846FFF797F8286016
:1024A0000123237500200BE0074B2B6001232375CC
:1024B000002005E0034B2B600123237500E0012081
:1024C00003B0F0BD12000706130007062DE9F04F18
:1024D00085B00191D0F8A070D0F8A480A7EB0809CE
:1024E000056F002D75D104461646914501D301258F
:1024F00070E000F17C0A4A460AEB0801504606F0FB
:10250000F7FD0023C4F8A430C4F8A090A8EB07029C
:10251000203203930AEB090814F118002ED094F826
:10252000283013F03C0F2BD100239A4623B12368A7
:10253000EFF31081596372B603AB4146E76AB847BF
:102540008346BAF1000F03D023685B6B83F31088D6
:102550000BF10103DBB2012B14D8039B1BB194F9DF
:102560002820002A16DB039B4B44C4F8A03023B379
:10257000BBF1FF3F21D00123236722E00023D4E7F2
:102580000123D2E75846FFF721F8019B1860012389
:1025900023751FE0002208F803204046FDF718FECF
:1025A000034600B90123039A9A42DCD90393A26E31
:1025B000134423624FF0000BD5E700222267B34299
:1025C00001D3012506E0054B019A13600123237511
:1025D00000E00125284605B0BDE8F08F470004065D
:1025E0002DE9F04F89B0139FBDF85090BDF858A069
:1025F000002800F0AA8016460446002900F0A880B2
:10260000002F00F0A880159A002A00F0A7808160B2
:102610000373BDF848204FF47A7101FB02F2426760
:1026200000220275002E5BD0B6F80080B8F5905FEE
:1026300060D008F56D43FF339BB27E2B00F297808C
:10264000012500952B460DF1170200213046FEF7BB
:10265000CBFF83460095042306AA29463046FEF7A1
:10266000C3FF03900095042307AA02213046FEF71A
:10267000BBFFBBF1000F5CD19DF81730023BDBB212
:10268000AB4256D8039B002B53D1002851D1069B57
:10269000002B55DBC3F30A08079D002D53DBC5F360
:1026A0000A056465334BA365334BE36504F15403BA
:1026B000B3600023A3636764A4F84890A4F84AA019
:1026C000E3642365159B23600195CDF80080534694
:1026D0004A4639462046FFF71FFD09B0BDE8F08F96
:1026E0005AB2002A3DDD03F5C06803F5B065012349
:1026F0000361DEE75AB2002A36DD03F5C06803F550
:10270000B0654FF0010BC0F810B0CDF81C80CDF8CB
:1027100000B0042307AA59463046FEF780FF07950C
:10272000CDF800B0042307AA02213046FEF777FF58
:10273000BFE7179B0BB1C3F800806FF00B00CCE72D
:102740004FF00008A8E70025ABE74FF0FF30C4E7E3
:102750004FF0FF30C1E74FF0FF30BEE74FF0FF30E2
:10276000BBE74FF0FF30B8E74FF0FF30B5E74FF071
:10277000FF30B2E7A1130008A9210008F0B585B029
:10278000002800F00583044600230393806B23692F
:1027900023B1257D15B9002800F0C18101B15BB9D5
:1027A00000252575A563012D00F0BB81012D00F0EA
:1027B000C682284605B0F0BD002800F07E81237D4A
:1027C00093B994F83C3003F0F002202A2FD0402B2C
:1027D00031D0954B0393012323750025039B73B3DD
:1027E00015B1039B002B63D0237D002B00F0628189
:1027F000237DDBB2012B00F05D81237D113B122B89
:1028000000F28881DFE813F07A008601FD0086017E
:102810008601860186018601860186018601860180
:102820008601860186018601540186016D0111230E
:1028300023750025D2E7212323750125CEE794F8DF
:102840003E3094F83D1041EA0321A18694F83F30D0
:1028500084F83630A068FEF703FE002304F1180266
:1028600094F83610FEF730FE48B994F8283013F08B
:10287000030F0AD16D4B039301232375B0E7FEF7D5
:10288000A5FE039001232375AAE73DB113F0010FC4
:1028900004D1674B039301232375A1E7002D9FD13A
:1028A00013F0020F9CD1634B03930123237597E729
:1028B000C4F8A030C4F8A430A3662367072203A994
:1028C0002046FFF703FE00288ED0236F7BB1236ADA
:1028D00063661BB9D4F8A030636685E7D4F8A020FE
:1028E000934281D0544B0393012323757CE794F9E1
:1028F0002820002A00DB236A636675E794F83C30E1
:1029000013F0020F5DD0266A13F0010F34D0C3F329
:102910008103C3F1040500230193ADF808302A4672
:1029200004F1400101A806F0D5FB94F8282094F9A1
:102930002830002B27DB86BB25620023009314F18F
:10294000180034D012F03C0F33D11E4623B1236857
:10295000EFF310825A6372B6276B6B462A4601A9C1
:10296000B8471EB123685B6B83F3108818BB122332
:102970002375012323679DE0731E022B01D90425D3
:10298000C9E73546C7E70EB1B542D4D2761B012E52
:1029900000D0022635442562CFE7B542CDD004D918
:1029A000264B03930123237584E0254BF9E700238D
:1029B000CBE70123C9E7FEF709FE03900123237546
:1029C00078E013F0010F15D0226A236C63669AB188
:1029D0009A4204D2194B0393012323756AE09A4269
:1029E0000AD994F92830002B06DB154B03930123F9
:1029F00023755FE00023636612232375002323679A
:102A000058E094F83C3013F0E00F4CD103F0010291
:102A1000226703F0100294F86C10914214D0094B15
:102A200003930123237545E001000405000001061E
:102A30000100010602000106470004061200070615
:102A400013000706000003056FEA530303F00705B0
:102A500004F17C03D4F8A0002A4604F13D01184497
:102A600006F038FBD4F8A0302B44C4F8A030A26E96
:102A70001544A566226A32B1954204D9A84B039346
:102A80000123237516E0226F1AB9C3F12003082B26
:102A900006D800231A4603A92046FFF775FC48B163
:102AA0001423237506E09F4B03930123237501E054
:102AB000222323750022A267A263A36F616F8B425A
:102AC00001D21A44A267A36F994203D8964B03938D
:102AD0000123237563681B69002B40F05781012592
:102AE00061E694F83C3003F0EF02602A04D08D4B8D
:102AF000039301232375DDE703F0100394F86C20A2
:102B00009A4204D0894B039301232375D2E72423EF
:102B10002375CFE7834B039301232375CAE7002571
:102B200041E663680022C3F80520C3F80920237D2D
:102B3000123B122B3FF63AAE01A252F823F000BF2F
:102B40008D2B0008AD270008D72B0008AD27000803
:102B5000AD270008AD270008AD270008AD27000805
:102B6000AD270008AD270008AD270008AD270008F5
:102B7000AD270008AD270008AD270008AD270008E5
:102B80000F2C0008AD270008812C00086368602224
:102B90005A71636894F834209A71A38E62681B0A94
:102BA000D371636894F836201A720023A3676168B2
:102BB000206802F0D6F9236F13B100252575F8E5DA
:102BC000002384F86C30A366C4F8A030C4F8A430A5
:102BD00013232375EAE594F86C30626843F0200310
:102BE000537194F86C306BB9102384F86C30002367
:102BF000A3676168206802F0B4F9236F23B1002550
:102C00002575D6E50023F0E713232375CEE5636E23
:102C10005A1E032A1DD97BB3626841215171626833
:102C2000C2F80930002384F86C30A367232323758E
:102C3000636894F834209A71A38E62681B0AD3717A
:102C4000636894F836201A726168206802F089F986
:102C5000ACE5C3F10403DBB29B00DBB2626843F076
:102C6000430353716068626E04F17C01093006F021
:102C700031FA00252575DBE7636840225A71D1E7F8
:102C80000023072203A92046FFF720FC00283FF479
:102C90008DAD626894F86C305371A3B9102384F839
:102CA0006C30D4F8A060D4F8A430F61A062E0CD9F3
:102CB000236F0BB1072E08D00023A36723232375AE
:102CC0002F4607260EE00023E9E76268C6F10703F6
:102CD000DBB25B00DBB251790B4343F0010353716C
:102CE00000272775606804F17C03D4F8A4103246ED
:102CF0001944063006F0EEF9D4F8A4303344C4F891
:102D0000A430A36E1E44A666636E002B38D09E428C
:102D10000ED9034B0393012323753D4646E500BFBF
:102D20001200070601000405000004050000030569
:102D300037BB9E4224D2184B039301232375237D76
:102D4000DBB2012B7FF435AD636880225A71636872
:102D500094F834209A71A38E62681B0AD371636859
:102D600094F836201A726368039AC3F809206168E0
:102D7000206802F0F6F8002323756FF0090518E5C6
:102D80006168206802F0EDF83D460FE504250DE589
:102D90006FF001050DE500BF130007060B79062B48
:102DA00000D07047D1F805300360B1F80930838056
:102DB00001238361F5E70000002836D08446407C7B
:102DC000002834D1002934D0042A34D1002B34D047
:102DD00070B5DCF80460086885B2C0F30A0E1F4CB9
:102DE000044064BB15F4F06F2BD0AEF20114A4B212
:102DF0007F2C28D9AEF28154A4B27E2C25D9AEF214
:102E00000164A4B27E2C22D9AEF5DC64A4B21F2CDE
:102E10001FD9BEF5E06F1ED8C40F3461C0F38070B7
:102E200070616046FEF7EBFA0AE00920704709205E
:102E300070470920704709207047092070470F200C
:102E400070BD0F20FCE70F20FAE70F20F8E70F20F6
:102E5000F6E70F20F4E70F20F2E700BF00F8FF3F8E
:102E600000283ED0F0B587B00D4616461F460446F2
:102E7000002939D0002A3AD02C22002106F052F93C
:102E800001230093042305AA00212846FEF7ACFB8A
:102E9000A0B9E461174B2362174B636204F11C0372
:102EA000AB60059DC5F30A02EB0F2361C5F3807586
:102EB00065610021A1614BB907B0F0BD0C9B13B156
:102EC0002B880C9A13606FF00B00F5E70B4B029305
:102ED0000194009140F2FF733946304601F0E4FF5F
:102EE000EAE74FF0FF3070474FF0FF30E4E74FF074
:102EF000FF30E1E7A1130008B92D00089D2D00085F
:102F000071B1036963B1836963B18288036823F097
:102F10007043836082810023C381836101207047F5
:102F200000238361C2B1C3891A440D4BA3FB021372
:102F30009B094FF47A7101FB1322C281826813440A
:102F40008360084A934209D9074A1A4482608389F8
:102F5000013383810020704710467047002070477E
:102F6000D34D6210FF5B260500A4D9FA0B79427C91
:102F700022B95BB143F0400303727047012B03D0C9
:102F800063F07F03037270474B798374C368B3FAAD
:102F900083F35B09C360012343607047D8B32DE915
:102FA000F04383B00C4617461E460546437CA3BB40
:102FB000A9B3012A35D1C6B3D0F8048091F80090A6
:102FC000B9F1010F33D0B9F1F00F32D8D8F81C3075
:102FD0001B6883BBB8F84420B8F84C10D8F84800F8
:102FE0000193B9EB030C18BF4FF0010CCDF800C0F2
:102FF00001F094FFC8F8280040B188F811903346DA
:103000003A4621462846FEF7FAF90BE00023C8F8B5
:103010002430092006E009207047092002E0092039
:1030200000E0092003B0BDE8F0830920FAE70F2093
:10303000F8E70F20F6E71720F4E70000002800F07B
:1030400081802DE9F04F85B00C4615461E46074697
:10305000437C002B78D1002978D0042A78D1002E27
:103060007AD0D0F804900B6899B2C3F30A0803F041
:10307000804AC3F3807B424A1A40002A6ED111F481
:10308000F06F6DD0A8F201139BB27F2B6AD9A8F222
:1030900081539BB27E2B67D9A8F201639BB27E2B32
:1030A00064D9A8F5DC639BB21F2B61D9B8F5E06F3A
:1030B00060D8D9F8243033B1BAF1000F03D0B9F891
:1030C0004430434558D1B9F84430434510D1C9F88C
:1030D00024B0BAF1000F04D0002389F81230C9F8E7
:1030E000183033462A4621463846FEF788F930E044
:1030F000B9F83010D9F82C00224B0293CDF8049087
:103100000023009340F2FF73424601F0CDFEA8BBBE
:1031100099F81120B9F84C10D9F848000023019310
:10312000D21A18BF01220092424601F0F7FEC9F8F8
:10313000280010B1A9F84480C9E70023C9F8243059
:10314000092006E009207047092002E0092000E07C
:10315000092005B0BDE8F08F0920FAE70F20F8E755
:103160000F20F6E70F20F4E70F20F2E70F20F0E73B
:103170000F20EEE70F20ECE70F20EAE70920E8E751
:1031800000F8FFBF6D2F00082DE9F04F87B0DDF884
:103190004490DDF84880BDF84CA0BDF854B000283C
:1031A00000F0BF800F4615461E460446002900F079
:1031B000BB80002A00F0BB80002B00F0BB80149B7A
:1031C000002B00F0BA80B8F1000F00F0B980602247
:1031D000002105F0A7FF802305930123009304231A
:1031E00005AA00212846FEF7FFF990BB6463564B01
:1031F000A363564BE36304F13403AB600023042262
:1032000019463046FEF723FAE06150B3002304224A
:1032100019461098FEF71BFA2062109B03B140B3C9
:1032200000238DF81330B9F1000F40D00123009333
:103230000DF1130200214846FEF7D6F910BB9DF8A8
:103240001330012B27D0F02B28D9F0238DF8133021
:1032500024E0169B13B12B88169A13606FF00B05B0
:1032600046E0169B13B13388169A13606FF00B0576
:103270003EE0169B1BB1109B1B88169A13606FF0E3
:103280000B0535E0169B1BB1B9F80030169A136098
:103290006FF00B052CE002238DF8133024652A4BC8
:1032A00063652B4BA36504F15003C9F808309DF802
:1032B000133063742760059AC2F380736362C2F3AC
:1032C0000A02A4F84420C4F82C80A4F830A0149B6F
:1032D000A364A4F84CB01F4B029301940023009305
:1032E00040F2FF735146404601F0DEFD054618B13D
:1032F000284607B0BDE8F08F002301939DF8132006
:10330000D21A18BF01220092059AC2F30A02594646
:10331000149801F003FEA0620028E9D14FF0FF35B8
:10332000E6E74FF0FF35E3E74FF0FF35E0E74FF01A
:10333000FF35DDE74FF0FF35DAE74FF0FF35D7E730
:103340004FF0FF35D4E700BFA11300083D3000085F
:103350009D2F00086D2F000830B583B0044600296A
:103360006CD083691A44934200D282616368E3B1EE
:103370000023A36163600125E3693BB11B682BB1A6
:10338000626A002A2CD0A2699A4210D2236A002BCA
:103390003DD01B68002B3AD0A269934237D26369B3
:1033A00003B902250123636133E00025E4E7A37C30
:1033B0000133DBB2A374627C934201D90123A3746D
:1033C0000023A361E368B3FA83F35B09E360A36AB4
:1033D000A27C5A71A16AA06C01F0C3FD0125D5E75A
:1033E000227C012AD2D103EB5302934201D94FF040
:1033F000FF32A3699342C9D900934FF401431822C5
:1034000001212068FEF764FD02232374BEE7002338
:103410006361237A3BB9012D15D1237C022B15D092
:10342000012323740FE0009348F240231922012165
:103430002068FEF74DFD00232372ECE70025456070
:10344000057285748561284603B030BD0021009166
:103450000B4618222068FEF73BFDE1E703B11A6036
:103460000020704781B138B504461D4608466CB14E
:1034700073B1A468944200D314462246002105F09B
:1034800051FE2C60002038BD092070470920FAE762
:103490000920F8E770B506460D461C46FDF780FF8B
:1034A00010B9737C012B00D070BD2368042BFBD1B5
:1034B00072682B68C3F30A0131B1B2F8226126F0B9
:1034C0007F04A4B2A14205D092680AB943F0004338
:1034D0002B60E9E766F30F03F6E700002DE9F04FF4
:1034E0008BB00C46C1F30729C1F3C408B8F1080F2B
:1034F00075D8064615461F46090C4FEA142A1F299F
:1035000002D8B9F1000F44D01498FDF7A9FF01903B
:10351000002303AA4946FDF7D7FF8446002860D15F
:10352000002F55D008239DF81C201A425DD014F0BE
:10353000070F5DD1059B43455DD3C5EBC50B06EB7E
:103540008B0B0BF110040DF10C0EBEE80F000FC435
:103550009EE8070084E80700CBF81C80002F40D1CC
:10356000B9F11F0F36D8019B9B689BB34FEAD9096D
:1035700009F108094B44043305F13C0246F82230B6
:103580000AF0070A012303FA0AFA354485F810A164
:1035900027E0C2EBC2039B001033C2184FF0000CAF
:1035A00040F803C0C2F804C0C2F808C0C2F80CC09A
:1035B000C2F810C0C5EBC50300EB8303C3F81C8041
:1035C000C3F818800D4A5A621E460D4BB36208E0DC
:1035D0000423A8E73C35002346F8253001E04FF0EE
:1035E000070C60460BB0BDE8F08F4FF0060CF8E713
:1035F0004FF0060CF5E74FF0060CF2E765340008D3
:103600005D340008002847D02DE9F04182B00D4616
:1036100017461E468046002940D0002B40D0447CEF
:10362000082C3FD84068816800293DD1437B0BB10D
:10363000002C3BD1E4B995F800E0BEF1080F37D873
:1036400074450BD2C4EBC40300EB83039A69DB69B6
:103650009A422FD319440134E4B2F1E708292BD858
:1036600011B9BEF1000F29D1017380F80DE00AE015
:10367000D0F81831013CD0F81C210092E2B2296840
:10368000FFF72CFF28B933463A4629464046FDF756
:10369000B6FE02B0BDE8F081092070470920F8E7C6
:1036A0000920F6E70920F4E70220F2E70220F0E71C
:1036B0000720EEE70620ECE70720EAE70F20E8E71F
:1036C000002800F0B6802DE9F04387B00C4615467F
:1036D0001E460746002900F0AE80002B00F0AD80AA
:1036E000042A00F2AC80D0F8048005A805F0F2FCB2
:1036F0007B7C022B7ED0052B00F09080012B08D024
:1037000033462A4605A93846FDF779FE07B0BDE8DD
:10371000F0832468A2B2C4F30A09E143C90F534BF2
:103720002340002B40F08D80002C07DBD8F80830B8
:1037300023B1B8F824314B4540F08580002C1ADBCA
:1037400012F4F06F00F08180A9F201139BB27F2B7D
:103750007DD9A9F281539BB27E2B7AD9A9F201635C
:103760009BB27E2B77D9A9F5DC639BB21F2B74D952
:10377000B9F5E06F73D8002C03DB98F80D30002BFF
:103780006FD0D8F808308B421DD0B8F822314B45A5
:103790001ED0002C20DBB8F82011D8F80400344BE0
:1037A0000293CDF804800023009340F2FF734A4651
:1037B00001F07AFB002C12DB88B90123C8F808302D
:1037C000A8F824919CE7B8F824314B45DDD197E760
:1037D00024F07F030593DCE74FF00009DBE70023CB
:1037E000C8F80830C8F84831C8F84C31002887D0EC
:1037F00009208BE7237803F10F02D2B20C2A32D9C9
:10380000F02B8CBF00230123D8F868219A4202D004
:103810000022C8F84C21C8F8683171E723884FF4BA
:103820007A7202FB03F3C8F86C310023C8F87031D8
:1038300066E709207047092068E7092066E7092044
:1038400064E70F2062E70F2060E70F205EE70F209C
:103850005CE70F205AE70F2058E70F2056E70F20AC
:1038600054E70F2052E70F2050E700BF00F8FF3F5A
:103870007538000891F804C090F86031826882B30E
:1038800030B501F1050E027B624526D80AD06BB136
:10389000D0F8682162B1D0F86421E2B1D26842B1B7
:1038A000012206E0012BF3D10B23F1E70D23EFE713
:1038B000002202F12A0C00EBCC04D1F80550DEF80E
:1038C000041040F83C5061605232012140F822104F
:1038D00080F8603130BD0022EBE7002BF8D10C23DB
:1038E000F6E780F8603170472DE9F04F87B0074662
:1038F000894690460293DDF844B000218DF81710F8
:10390000012300930DF117024046FDF76DFE039071
:1039100010B90024A2462BE0109B3BB1B8F1000F78
:1039200008D0B8F800301B02109A13606FF00B0338
:10393000039361E00023F6E7109B43B1B8F1000F59
:1039400009D0B8F8003044EA0324109B1C606FF0E3
:103950000B03039350E00023F5E79DF81730A342D3
:1039600005D9C6EBC60607EB8606F3699A442C46D2
:10397000072C2AD8264600230493651CEDB20123A8
:103980000093042304AA29464046FDF72DFE0E2885
:10399000EDD00028D0D1CDF80090029B22460499AA
:1039A0003846FFF79BFD0028D7D0C4EBC40307EBD4
:1039B000830300229A61FF22DA61DBF80030002BDA
:1039C000CBD1049BCBF80030C7E7BAF1080F05D87C
:1039D000BAF1000F08D19DF817302BB1DBF8003099
:1039E00013B90123CBF80030DBF8003023B987F896
:1039F0000CA09DF817307B73039807B0BDE8F08FDB
:103A00002DE9F04F8BB00593BDF850B0179EBDF86F
:103A10006090002800F0E3800D4617460446002918
:103A200000F0E080002A00F0E080159B002B00F001
:103A3000DF80169B002B00F0DE80002E00F0DE8081
:103A40004FF4BA72002105F06DFB27606660002319
:103A5000099309AB0193199B00930123169A2946F8
:103A60002046FFF741FF074618B138460BB0BDE8C6
:103A7000F08F0023089301210091042308AA1598D0
:103A8000FDF7B2FDA8B9089B6FEA030A4FEADA7A9C
:103A9000C3F30A08002B1ADB627B12B1B8F1000FE6
:103AA00015D1DDF824A0BAF1000F0ED10122099240
:103AB0000DE0199B33B1159B1B881B0243F00103DA
:103AC000199A13606FF00B07CFE74FF0000A099ABD
:103AD00052B12068012A00D0134600934FF40243EC
:103AE0001A220121FEF7F4F9BAF1000F09D0B8F15A
:103AF000000F08D02BF07F039BB2984503D1D84626
:103B000001E04FF000083F4B029301940023009323
:103B100040F2FF7342464946304601F0C5F9074678
:103B20000028A2D1C4F808A0FE238DF81F3001237D
:103B300000930DF11F0202211598FDF755FD074670
:103B4000002840D1059BC4F864319DF81F30F02B4C
:103B50008CBF00230123C4F868310023ADF81C306A
:103B600001260096022307AA05211598FDF73CFDC2
:103B7000BDF81C304FF47A7202FB03F3C4F86C31C9
:103B8000C4F81861C4F81C51A4F82091A4F822B11B
:103B9000A4F82481C4F828411B4BC4F82C311B4BDA
:103BA000C4F83031C4F83841194BC4F83C31194BD2
:103BB000C4F8403104F59473159A936004F59C742D
:103BC000169B9C6051E7199B33B1159B1B881B0208
:103BD00043F00203199A13606FF00B0745E74FF0AB
:103BE000FF3742E74FF0FF373FE74FF0FF373CE743
:103BF0004FF0FF3739E74FF0FF3736E74FF0FF3729
:103C000033E700BF7538000895340008C136000856
:103C1000A1130008053600082DE9F04F89B00746CA
:103C200003918268002A00F0A980002B00F0A68092
:103C3000129921B9D0F86811002940F09F8097F8B7
:103C400060310A2B10D9B3F10B0418BF01240C2BDF
:103C500015D048F220233A7B00920422214638688E
:103C6000FEF736F987F86041D7F8683153B1D7F8D5
:103C70006431D3B1DB68DBB10023029304E048F286
:103C80001023E8E7002302930022029B523357F8E7
:103C90002330002B4AD0029B03F12A0A07EBCA0A01
:103CA0005233002447F8234024E000230293EBE73B
:103CB00001230293E8E7F6B2B1452DD851464FEA09
:103CC000C508C5EBC50307EB83030022DA61D3F80F
:103CD00028B0C5EBC5008000103005AB4A4638441B
:103CE000D847A8EB050807EB8808C8F81C60B24461
:103CF0000134E4B27B7B0122A342C6D92546C4EB42
:103D0000C40307EB8303DE69D3F81890B9F1080FF9
:103D1000D1D94FF00809CEE7002306930793324626
:103D2000514606A805F0D6F906A9C8E7D7F86C31C0
:103D30006BB37AB1D7F87021934203D30123C7F84C
:103D4000703124E000920023172219463868FEF7EC
:103D5000BFF8F3E7D7F87021CAB1934217D9039996
:103D60000A44C7F87021934211D2009248F25023BE
:103D7000172201213868FEF7ABF808E002B133B929
:103D80000023C7F84831C7F84C31C7F8703109B083
:103D9000BDE8F08F034620B100201860586098609D
:103DA00070474FF0FF30704770B404680C440460F3
:103DB00000263146B4464CE002214FF0000C61E091
:103DC0004CF0040C68E041F0040165E0002444710B
:103DD00062E04CF0080CC4790134E4B2C471013CD7
:103DE000092C0ED8DFE804F00B1C0B1C0B1C0D0D6E
:103DF0000D1F41F00801EEE700248471EBE74CF061
:103E0000100C047A0134E4B20472013C0B2C1BD870
:103E1000DFE804F00C0F0C0F0C0F0C0F1A1A1A121B
:103E200041F01001EDE70024C471EAE74CF0200CEA
:103E30000AE041F0200107E00024047204E001F0F0
:103E40007E0C817A01F07E01002D3FD14CF0010CF7
:103E5000012604684CF24F35AC423AD9417A01F060
:103E60000105A4F54344503C046004790134E4B2F4
:103E70000471032CE3D90024047111F002019BD1D9
:103E80004FF0020C44790134E4B24471022C9AD010
:103E9000062C9BD0012C93D084790134E4B2847138
:103EA000013C072C97D801A656F824F0D33D000812
:103EB000F33D0008D33D0008F33D0008D73D00085E
:103EC000D73D0008D73D0008F93D000841F0010149
:103ED000BEE75EB3039CE4B912B90CF0010419E02B
:103EE000059C14B10CF0200414E0069C14B10CF0F5
:103EF00010040FE0079C14B10CF008040AE0049CC5
:103F000014B10CF0040405E0089C8CB10CF0020420
:103F100000E0012473B101F001030CB14CF0800CFE
:103F20000BB141F0800180F809C0817270BC70470C
:103F30000024EFE7099B13B101F01003EDE7042A19
:103F400005D07F2A06D0052A07D00023E5E701F037
:103F50000403E2E701F00203DFE70123DDE700BF2E
:103F60000B79082B00D07047436C002BFBD101F17B
:103F7000050C4B79042B13D0027C002A40F093806F
:103F800030B5A3F14002112A53D8DFE802F02E32F7
:103F9000363A525252525252525252525252525334
:103FA0008A7912B1012A1DD07047027C012A09D0FA
:103FB00000220023037443618361C3610362002A0A
:103FC0007BD1704790F84020FF2A01D00022F0E713
:103FD000C26B1278FF2A03D080F848300122E8E74C
:103FE0000022E6E7012303747047D1F806304361ED
:103FF0001FE0D1F8063083611BE0D1F80630C361C1
:1040000017E0D1F806200262816944688C4210D121
:104010008468C1698C420CD1C168914209D10168A0
:104020004269914205D10122027480F8483001238F
:10403000436430BDC26B1278FF2AFAD190F8402059
:10404000FF2AF6D18A7A91F80BC091F80CE01F2A6A
:1040500001D9802AEDD1BCF1030FEAD8BEF1030FDC
:10406000E7D8D1F80640802A13D090F83410614583
:10407000DFD14FF0FF31914050F82C506C400C4292
:10408000D7D180F834E05AB9F44509D90122027435
:1040900006E0002280F8342042628262C26202633B
:1040A00080F84830C3E7D1F80510DCF80420C0F8E8
:1040B0004910C0F84D2080F8483001234364704710
:1040C0002DE9F04385B0DDF830900F9F002847D0F0
:1040D0000E4690461D460446002A44D0002B45D08B
:1040E000B9F1000F45D0002F46D01A7893F900306F
:1040F000002B01DCFF2A42D174220021204605F06A
:1041000011F830687168B268F36820606160A2607D
:10411000E360C4F83880E5632B7884F840301B4BAB
:10412000029301940026009640F2FF73BDF83820F8
:10413000BDF83410484600F0B7FE0546E766019624
:10414000082300933346BDF84420BDF8401038469C
:1041500000F0E4FE2067A8B1284605B0BDE8F08372
:104160004FF0FF35F8E74FF0FF35F5E74FF0FF353B
:10417000F2E74FF0FF35EFE74FF0FF35ECE74FF098
:10418000FF35E9E74FF0FF35E6E700BF613F000884
:10419000436C002B00F0DC8070B50446036F0022F6
:1041A000C3F80520C3F8092090F84820131F5A2BA4
:1041B00000F2C480DFE803F02EC2C2C2C2C2C2C293
:1041C000C2C2C2C2C239C24DC276C286C2C2C2C255
:1041D000C2C2C2C2C2C2C2C2C2C2C2C2C2C2C2C2BF
:1041E000C2C2C2C2C2C2C2C2C2C2C2C2C2C2C2C2AF
:1041F000C2C2C2C2C2C2C230C2C2C2C2C2C2C2C231
:10420000C2C2C2C2C2BEC2C2C2C2C2C2C2C29BA2D9
:10421000A9B0B700012092E0036F44225A71216FC8
:10422000E06E00F09EFE002089E090F84A3090F9A0
:104230004A20002A09DDE26B13700022236F94F8F4
:1042400048105971236F9A71E9E7FF2BF3D00122CF
:10425000F4E7436D002B75D090F84A5090F84B204E
:1042600075B9052A17D0092A17D83A4931F81260CA
:104270003146806D984790B1A36B1E80294601E0BE
:1042800000250121236F94F848205A71236F9971FA
:10429000236FDD71C3E70121F4E70121F2E7012576
:1042A000FF21EFE7436D002B4ED0C36D002B4DD0A7
:1042B00090F84B1090F84A2042EA0121006E98478E
:1042C00000203CE0436E73B1C16B826B12880978A9
:1042D000806E984748B10021236F94F848205A71A6
:1042E000236F99719BE70121F6E70221F4E7036F41
:1042F0005A710268036FC3F8062090E7036F5A7182
:104300004268036FC3F8062089E7036F5A71826819
:10431000036FC3F8062082E7036F5A71C268036F08
:10432000C3F806207BE7036F5A71036F90F84020B3
:104330009A7174E7036F4F225A7170E700200023CF
:10434000636470BD0020FAE70020F8E70020F6E77C
:1043500000207047209F0008002835D010B5044683
:10436000406800F097FDE06804F0ACFEA06804F03F
:10437000A9FE606804F0A6FEE06B04F0A3FEA06B4B
:1043800004F0A0FE606B04F09DFE206B04F09AFE2A
:10439000E06A04F097FEA06A04F094FE606A04F0FC
:1043A00091FEE06904F08EFE206A04F08BFEA069A5
:1043B00004F088FE606904F085FE206904F082FE46
:1043C000204604F07FFE10BD704770B50D464021B9
:1043D000012004F07DFC0446002866D02C21012039
:1043E00004F076FC2061002865D03021012004F023
:1043F0006FFC6061002860D01021082004F068FC88
:10440000A06100285BD05021012004F061FCE06134
:10441000002856D00821112004F05AFC2062002800
:1044200052D0A821012004F053FC606200284ED035
:104430002C21012004F04CFCA06200284AD060210D
:10444000012004F045FCE062002846D04FF4BA7128
:10445000012004F03DFC2063002841D00C21012004
:1044600004F036FCA06300283DD07421012004F044
:104470002FFCE063D0B33821012004F029FC6060F8
:10448000B8B30C210E2004F023FCA060A0B31821C7
:10449000052004F01DFCE06088B30123236040F296
:1044A000746605B12E60204670BD00262046FFF7D9
:1044B00053FF0024F5E74026F8E76C26F6E79C2634
:1044C000F4E74FF48E76F1E74FF4B676EEE74FF46B
:1044D000FA76EBE74FF42776E8E74FF43276E5E734
:1044E0004FF44A76E2E740F29C46DFE74FF49566E8
:1044F000DCE740F21C56D9E740F25456D6E740F2CA
:10450000FC56D3E7B8B170B584B00C4616460546E4
:10451000436800225A61084600F03CFC02960523DD
:104520000193EB6800930E23AA682146686800F0A7
:1045300045FC04B070BD4FF0FF307047C8B100B506
:1045400087B094461A468646436840F2E470059068
:1045500004200490039340F2E57002900D20019036
:1045600000936346DEF83C00FFF7AAFD07B05DF854
:1045700004FB4FF0FF3070472DE9F04F8BB0BDF8D2
:104580005C909DF86860002800F0BD801546984654
:10459000044662B300232360FF2E2AD073B2002B9F
:1045A00040F3B480A06BFFF7F5FB0346D8B923684E
:1045B000002B40F0AE80584B1B685A681B9B05933C
:1045C000049602F1180303930123029302F16C0392
:1045D000019311230093236A0C326168E069FDF7AF
:1045E000CFFB034640B118460BB0BDE8F08FC5695C
:1045F000D0E701232360D5E7474B1B685968636800
:104600001B9A089206F5E062079203220692059330
:104610000022049203920293BDF858300193BDF832
:104620005430009333462A4690312069FDF75CF8F8
:1046300003460028D7D1384B1B685B681B9A03924E
:104640000522029262680192843300930823A269D2
:1046500029466069FDF700FA03460028C3D12E4BB6
:104660001B685A68B432002828DD2B4B1B68596838
:104670001B9B0093022362686031A06AFEF7F0FB87
:1046800003460028AFD1244B1B685A6863681B9906
:10469000069100210591049301210391029302F1F7
:1046A000A803019302F13C03009302F1300324328A
:1046B0002946E06AFEF768FD034694E702F10C0B19
:1046C00061681FFA80FA1B9B05930AF102039BB2F3
:1046D000049303910AF104039BB202930191CDF874
:1046E0000090334641464FF0A80C676A0CFB0070FF
:1046F000FDF776FF034600287FF475AF0AF101004D
:1047000000B25A46AFE74FF0FF336CE74FF0FF338C
:1047100069E76FF0120366E70000002000284DD023
:104720002DE9F04F87B08B4616461C4607465BB214
:10473000002B01DD03684BB13B6823B16FF0120021
:1047400007B0BDE8F08F4FF0FF30F9E71D4B1B6855
:104750005A6802F1CC0CD8320020002801DD00207C
:10476000EEE7032828DC831C1B029BB223449BB288
:104770000CF10C0902F10C0A1FFA80F8109905914E
:1047800008F1030189B20491796803910292CDF88E
:1047900004C00093FB6A5A4631464FF4BA7C3D6B25
:1047A0000CFB0050FFF72CF90028C9D108F10100DB
:1047B00000B25246CC46D0E70023D9E74FF0FF3095
:1047C000704700BF000000202DE9F04F8BB0044679
:1047D00015461E460369002B34D093F900308DF83E
:1047E00027307F2B33D0052B2ED04FF00008606888
:1047F00000F012FCE06BFFF7CBFC58BB4FF0000958
:1048000023686268518AE26B3AB3127C012A27D08E
:104810004FF0000EA06B33BB9DF92720C1F3800A37
:1048200040F20337394214BF4FF0010B4FF0000B39
:104830000BBBE169C9B1C97811F0010F18D04FF075
:10484000010C1AE00023CAE74FF00108CFE74FF050
:104850000108CCE74FF00109D2E74FF0000ED9E78D
:104860004FF0010ED6E70022D8E74FF0010C04E02C
:104870004FF0000C01E04FF0000C53B9E3693BB37B
:10488000DB7813F0080F25D113F0100F24D100218D
:1048900000E00021E3690BB3DB680BB31F780796D8
:1048A00000230693FF1A18BF012705970491CDF83E
:1048B0000CC00293CDF804B0CDF800A07346294691
:1048C000FFF772FA23686BB148460BB0BDE8F08F72
:1048D0000121DFE70121DDE70121DBE70027DEE73A
:1048E0000027DCE733462A464146E069FDF751FBE5
:1048F00033462A460DF127012069FCF77FFF8146E8
:104900009DF927307F2B14D0052B0FD04FF00008D6
:1049100000278FB133462A4641466069FDF714F9F6
:104920002A464146A06AFEF7EBFACDE74FF00108B0
:10493000EEE74FF00108EBE7606A33462A4641464E
:104940004FF0A80C0CFB0700FDF718FF0137FFB272
:10495000DFE738B50568EDB90446134602699AB138
:1049600092F900207F2A13D0052A0FD000200A4692
:104970000146E06AFEF7F0FC01280ED002280AD1B9
:10498000606800F018FB06E00022EDE70120EEE78A
:104990000120ECE70025284638BD0125FBE72DE97D
:1049A000F04383B00E46016881B904461746994624
:1049B000036973B193F90080B8F1050F14BF4FF08C
:1049C00000084FF001080025002D05DD03B0BDE80B
:1049D000F0834FF00008EFE7206B009643464A460D
:1049E00039464FF4BA7C0CFB0500FFF715F9013589
:1049F0002DB2E9E77047000070B58EB0564804F05C
:104A000015FD564C23685B6800265E61544D28688E
:104A100000F0C0F92368586800F03CFA3246296873
:104A20002068FFF76FFD4F4B1870002867D14E4B81
:104A30005A6C0A929A6C0B92DA6C0C921B6D0D9365
:104A4000474B1A68931C0AA944480068FFF776FD93
:104A5000444B1870002859D1414B1A681178517095
:104A6000002109911B6809AA07925B7806930591BA
:104A70004FF4FA7304934FF47A720392029342F262
:104A8000111301930091394B1B680A4633480068A3
:104A9000FFF772FD334B187010B110F1130F3BD1BB
:104AA0002E4B18682E4B1B685B78C16909AA0092CF
:104AB0002E4A1268FFF732FE2A4B1870002839D1AF
:104AC000274B1B68586801F007FE244B1B681B68C6
:104AD000002B3DD1214B1B68586800F062F9244837
:104AE00004F0A4FC234B1B68986804F0BBF900F0A9
:104AF0006DFF214B1860214B1860002004E0014637
:104B00001F4804F00DFC01200EB070BD01461D4889
:104B100004F006FC0220F7E710F10C0F05D0014667
:104B2000194804F0FDFB0320EEE70999174804F04B
:104B3000F7FBF8E710F10C0F05D00146144804F01C
:104B4000EFFB0420E0E70999104804F0E9FBF8E7DF
:104B5000104804F06BFCBDE7349F000824060020D9
:104B6000280600202C0600200C0100200000002058
:104B700054A00008F4010020300600203406002074
:104B80005C9F0008849F0008D89F0008B09F000821
:104B900004A000082CA0000800B583B00E4B1860DC
:104BA00001A90020FFF711FC0C4B186070B10199AE
:104BB0000B4804F0B5FB084B1B68084A12685A61A1
:104BC000FFF71AFF002003B05DF804FB054804F06E
:104BD0002DFC0120F7E700BF280600202406002056
:104BE00090A0000870A0000810B500F0EFFE1A4B6E
:104BF00018601A4B1A68904200D110BD821A1860D2
:104C0000174C00234FF47A7101FB02F21946206819
:104C1000FFF7DAFD21688B6B5B7A124A1268DB09B9
:104C200053748B6B9B7ADB091374012807D002281D
:104C3000E3D10D4804F0FAFB01F072FCDDE7104609
:104C400000F0A8F82068FFF787FB084804F0EEFBA7
:104C5000FFF7D2FED1E700BF300600203406002067
:104C60002406002028060020E0A00008B8A00008C4
:104C700038B5154B1A685268EFF31081516372B65C
:104C80001868036813B943685B6933B90E4B1B6836
:104C90005B685B6B83F3108838BD00224FF47A7138
:104CA000FFF757FE0446084D00234FF47A72014681
:104CB0002868FFF774FE00234FF47A7221462868B3
:104CC000FFF798FEE2E700BF2406002030B583B06E
:104CD00005460C460368986800F05DFC10B900209A
:104CE00003B030BD0C4900234B608B6023790B610E
:104CF0002368C3F30A030B60224652F8053B9B0B63
:104D000003F00203CB60286801AB806800F0CEFBA3
:104D1000B0FA80F04009E3E75806002030B585B0CE
:104D20000DF10503194A00F04FFC88B90546174BF1
:104D30001C68DB68022B0DD000231C430094134B2E
:104D40001B698DF80430124B1B689A692AB100BEAA
:104D500005B030BD4FF40043EFE75A681B894BB1F3
:104D6000118861405088014203D0013B9BB20C3254
:104D7000F5E70125002DEBD0002AE9D09368002B40
:104D8000E6D0694650689847E2E700BF3C0600203D
:104D90003806002020B108B5806800F056FB08BD39
:104DA0007047036843B110B50446986800F01FFBD4
:104DB00008B90123636110BD7047000070B58AB067
:104DC0000E9DBDF83CE0002852D00C460146002A5A
:104DD00051D0002D52D004602D4801604A600B81F3
:104DE000CD60A1F810E00020488248618861C86168
:104DF00001260E628884886211E000EB400C4FEAC5
:104E00008C0602EB8C0C002191534FF6FF76ACF828
:104E10000260CCF80410CCF80810013080B298423F
:104E2000EBD3002307E003EB430205EBC2020021B2
:104E3000116101339BB27345F5D3E36898470023B2
:104E40000593069301220792009301930293039323
:104E5000049308920E2309936946A06800F044FA6F
:104E600078B91321A06800F064FC68B90AB070BD7D
:104E70004FF0FF30FAE74FF0FF30F7E74FF0FF3029
:104E8000F4E74FF0FF30F1E74FF0FF30EEE700BFFF
:104E90003806002030B108B5036813B1986800F0F7
:104EA000D4FA08BD7047000030B5049C059D20B3BE
:104EB00084462CB33DB30089884227D9DCF804002E
:104EC00001EB41014FEA810E00EB81014C608D60E6
:104ED000C2F30A02039C74B10F4C224320F80E2047
:104EE000C3F30A0343F400434B80DCF8183083B16A
:104EF00000BF00200EE00024EFE74FF0FF3009E094
:104F00004FF0FF3006E04FF0FF3003E04FF0FF308E
:104F100000E0002030BD00BF0080FFFF8446E8B104
:104F2000008A88421BD910B4DCF80C4001EB410127
:104F30004FEAC10C04EBC100C2F30A020BB14FF4FB
:104F400000431A4344F80C209DF8043003710023F9
:104F50000361029B43615DF8044B7047704700207A
:104F6000704770B504460D460B6943B1036ABBB97F
:104F7000438A43F0080343826FF0080600E00026EE
:104F8000EFF31083E36272B629462046FFF79EFED8
:104F900048B16B69E361E36A83F31088304670BD02
:104FA0006FF00806ECE701232B61A38C9BB2013361
:104FB0009BB2A384EFE710B4EFF31083C36272B621
:104FC000C46914B10023C3610124838C9BB2C3B1B3
:104FD000038A01E0013B9BB29BB1C26803EB430132
:104FE00002EBC10211690029F4D051690029F1D006
:104FF00000211161828C92B2013A92B28284022421
:10500000E8E7C36A83F310881CB1438A43F0800346
:1050100043825DF8044B704703689B681B689A697C
:1050200002F00701836A8B4207D0438A816212F043
:10503000040F03D043F004034382704723F4417309
:1050400023F003039BB212F0010F03D043F48073EB
:1050500043F0010312F0020FEED043F4007343F06B
:105060000203E9E708B500221146FFF757FE08BD25
:1050700008B500220121FFF751FE08BD002303629D
:10508000C361838C9BB22BB370B50646C568EFF342
:105090001083C36272B6048A02E0013CA4B21835E0
:1050A00094B12B69002BF8D029463046FFF70EFE4D
:1050B0000028F2D000232B61B38C9BB2013B9BB242
:1050C000B3846B69F361E8E70023B384F36A83F385
:1050D000108870BD7047000008B50121024B1868A8
:1050E000FFF7CCFF08BD00BF3806002008B501213E
:1050F000024B1868FFF7C2FF08BD00BF380600204A
:1051000008B50121024B1868FFF7B8FF08BD00BFC2
:1051100038060020704770477047704770477047E7
:1051200070477047002800F0C08038B5044690F8FA
:105130002030F3B95E4B03645E4B43645E4B836483
:105140005E4BC3645E4B83625E4BC3625E4B036324
:105150005E4B43635E4B83635E4BC3635E4B036591
:105160005E4B43655E4B8365C36DEBB1E36D2046DB
:1051700098472268136843F00103136000F026FC8F
:10518000054623685A6812F0010F10D100F01EFC8A
:10519000401B0A28F5D9636A43F400336362052390
:1051A00084F82030012038BD4E4BC365DEE71A6815
:1051B00022F002021A6000F009FC054623685A68D2
:1051C00012F0020F0DD000F001FC401B0A28F5D9A7
:1051D000636A43F400336362052384F820300120BE
:1051E000E1E7227E012A3DD01A6822F080021A608F
:1051F000637E012B3BD02268136823F040031360C9
:10520000A37E012B39D02268136823F0200313609A
:10521000E37E012B37D02268136843F0100313603C
:10522000237F012B35D02268136823F00803136015
:10523000637F012B33D02268136823F004031360CB
:10524000A368E268134322691343626913436268E7
:10525000013A21681343CB6100206062012384F886
:105260002030A0E71A6842F080021A60C0E7226886
:10527000136843F040031360C2E72268136843F0E9
:1052800020031360C4E72268136823F0100313603F
:10529000C6E72268136843F008031360C8E7226872
:1052A000136843F004031360CAE70120704700BF8E
:1052B000655000081B510008715000081D5100087E
:1052C000D9500008ED5000080151000815510008A0
:1052D00017510008195100081F51000821510008FA
:1052E00023510008A50D0008026890F82030013B0A
:1052F000DBB2012B05D9436A43F4802343620120CA
:10530000704730B4D2F8003243F00103C2F80032E3
:105310004B6903F01F03012000FA03F3D2F81C02CB
:105320006FEA030C20EA0300C2F81C02C869B0B996
:10533000D2F80C020CEA0000C2F80C028C88486912
:10534000CD6844EA0544483042F830400C8848694A
:105350008D6844EA0544483002EBC0004460C869E7
:1053600001281BD0886980BBD2F804020CEA000037
:10537000C2F80402086970BBD2F814020CEA0000FB
:10538000C2F81402096A01292BD0D2F8003223F0A6
:105390000103C2F80032002030BC7047D2F80C0282
:1053A0001843C2F80C028C8848690D6844EA054429
:1053B000483042F830408C8948698D6844EA054499
:1053C000483002EBC0004460CCE7D2F80402184336
:1053D000C2F80402CEE7D2F814021843C2F814024D
:1053E000D0E7D2F81C120B43C2F81C32CDE770B5DF
:1053F000044690F82050EDB2012D06D0436A43F4E4
:10540000002343620125284670BD022380F8203026
:105410000268136823F00103136000F0D7FA064610
:1054200023685B6813F0010F0CD000F0CFFA831BE8
:105430000A2BF5D9636A43F400336362052384F8C9
:105440002030E0E700256562DDE738B5044690F8D6
:105450002030DBB2022B05D0436A43F48013436251
:10546000012038BD0268136843F00103136000F0A7
:10547000ADFA054623685A6812F0010F0DD100F00D
:10548000A5FA431B0A2BF5D9636A43F40033636220
:10549000052384F820300120E3E71A6822F0020295
:1054A0001A60012384F820300020DAE730B590F844
:1054B00020C00468A4680CF1FF3C5FFA8CFCBCF1CE
:1054C000010F62D814F0E05F59D0C4F3016C0124DD
:1054D00004FA0CF41C608B68002B3DD10D68CB687E
:1054E000046843EA45550CF118031B01E5500368B5
:1054F0000C690CF1180E03EB0E135C600B7D012B95
:1055000035D0D17993791B0443EA0163517943EA99
:10551000012314790168234301EB0C11C1F88C318C
:10552000D17893781B0443EA0163517843EA01235D
:10553000117802680B4302EB0C12C2F88831026842
:105540000CF1180C4FEA0C1C52F80C3043F001031C
:1055500042F80C3000201DE04C6843EAC403CC68DC
:1055600023430CF11804240105682B51BFE703689D
:1055700003EB0E13596841F480715960C1E7436A27
:1055800043F400134362012004E0436A43F48023A0
:105590004362012030BD90F82030013BDBB2012B8B
:1055A00001D9002070470368986810F0806000D02F
:1055B00001209A6812F0006F00D001309B6813F050
:1055C000805FEFD00130704790F820C00CF1FF3CB5
:1055D0005FFA8CFCBCF1010F00F2A58030B451B928
:1055E0000468E46814F0030F10D1436A43F4001315
:1055F000436201207EE00468246914F0030F05D1A2
:10560000436A43F400134362012073E0056801F12B
:105610001B0424012C5904F004049460002C6BD169
:10562000056801F11B0424012C59640D1460046801
:1056300001F11B0C4FEA0C1C54F80C4004F002045E
:10564000D4600468A444DCF8045015F0080F5BD063
:1056500008241461056801F11B0C05EB0C156D683D
:10566000C5F307259561046804EB0C146468240CE9
:105670005461026802EB0112D2F8B8211A70026874
:1056800002EB0112D2F8B821C2F307225A70026865
:1056900002EB0112D2F8B821C2F307429A700268F5
:1056A00002EB0112D2F8B821120EDA70026802EB96
:1056B0000112D2F8BC211A71026802EB0112D2F871
:1056C000BC21C2F307225A71026802EB0112D2F820
:1056D000BC21C2F307429A71026802EB0112D2F8B0
:1056E000BC21120EDA71C1B90268D36843F02003FD
:1056F000D360002030BC7047056801F11B04240111
:105700002C59E408546092E701F11B0504EB0514E1
:10571000646804F00F0414619CE70268136943F0A5
:1057200020031361E5E7436A43F4802343620120C9
:10573000704790F82030013BDBB2012B05D9436A5A
:1057400043F4802343620120704702685369194380
:105750005161002070472DE9F84F044603685D69E8
:10576000D3F804809F68D3F80CB0D3F810A0D3F816
:10577000189015F0010627D017F0010608D0012275
:105780009A6017F0020F00F0AC80836A98470026F9
:1057900017F4807F0AD023684FF480729A6017F460
:1057A000007F00F0AD80E36A2046984717F4803F01
:1057B0000AD023684FF480329A6017F4003F00F05B
:1057C000AF80236B2046984715F0080F07D01BF0D9
:1057D000100F04D046F4007623681022DA6015F02A
:1057E000040F08D01BF0080F05D023680822DA60E8
:1057F000636C2046984715F0020F07D02368DB68DA
:1058000013F0030F02D0236C2046984715F0400F89
:1058100007D01AF0100F04D046F4806623681022D7
:105820001A6115F0200F08D01AF0080F05D0236870
:1058300008221A61E36C2046984715F0100F07D034
:1058400023681B6913F0030F02D0A36C204698470E
:1058500015F4003F08D018F0100F05D0236810226F
:105860005A60236D2046984715F4803F08D018F001
:10587000080F05D0236808225A60636D20469847B8
:1058800015F4004F69D018F0040F63D015F4807F31
:1058900004D019F0010F01D046F0010615F4007F85
:1058A00004D019F0020F01D046F0020615F4806F03
:1058B00004D019F0040F01D046F0040615F4006F6F
:1058C00048D019F0700945D0B9F1400F5AD04DD8E1
:1058D000B9F1200F53D0B9F1300F31D146F0200685
:1058E00033E017F0040F05D117F0080605D1436B1C
:1058F00098474DE74FF400664AE74FF4805647E774
:1059000017F4806F02D046F400564FE717F4006F8B
:1059100002D046F4804649E7A36B2046984745E706
:1059200017F4802F02D046F400464DE717F4002FFD
:1059300002D046F4803647E7E36B2046984743E7BA
:10594000B9F1100F01D146F008062268936923F0DF
:1059500070039361236804225A602EB1636A1E4368
:105960006662A36D20469847BDE8F88FB9F1500FE5
:105970000BD0B9F1600FE8D146F48076E5E746F048
:105980001006E2E746F04006DFE746F08006DCE777
:1059900008B5074A136843F010031360032000F0B2
:1059A00067FD0520FBF7B8FBFBF792FB002008BD65
:1059B00000200240034A1168034B1B780B4413601C
:1059C000704700BF70060020E4010020014B1868FA
:1059D000704700BF70060020002800F0018370B5FA
:1059E00082B00446036813F0010F3BD0B54B5B68EF
:1059F00003F00C03042B1ED0B24B5B6803F00C03C6
:105A0000082B13D06368B3F5803F68D0002B40F0BB
:105A1000928003F1804303F504331A6822F4803244
:105A20001A601A6822F480221A605DE0A54B5B6858
:105A300013F4803FE6D04FF4003393FAA3F3A14B65
:105A400019684FF4003393FAA3F3B3FA83F303F026
:105A50001F03012202FA03F30B4203D06368002BF9
:105A600000F0C082236813F0020F00F0C580954B50
:105A70005B6813F00C0F00F09C80924B5B6803F0A6
:105A80000C03082B00F08F802369002B00F0F280BC
:105A9000012292FAA2F3B3FA83F303F1845303F5DC
:105AA00084139B001A60FFF791FF0546022393FAC7
:105AB000A3F3844B1968022393FAA3F3B3FA83F395
:105AC00003F01F03012202FA03F30B4240F0C380EC
:105AD000FFF77CFF401B0228E8D903208BE2794ABC
